:020000040800F2
:1000000020070020010100087718000809170008E0
:1000100075180008D1040008E71A00080000000065
:100020000000000000000000000000007B18000835
:100030002305000800000000791800087D1800085A
:100040001B0100081B0100081B0100081B01000820
:100050001B0100081B0100081B0100081B01000810
:100060001B0100081B0100081B010008D504000843
:100070001B0100081B0100081B0100081B010008F0
:100080001B0100081B0100081B0100081B010008E0
:100090001B0100081B0100081B0100081B010008D0
:1000A0001B0100081B0100081B0100081B010008C0
:1000B0001B0100082D1900081B0100081B01000886
:1000C0001B0100081B0100081B0100081B010008A0
:1000D0001B0100081B0100081B0100081B01000890
:1000E0001B0100081B0100081B010008DFF80CD0F1
:1000F00000F044F900480047291B000820070020B1
:100100000648804706480047FEE7FEE7FEE7FEE7B1
:10011000FEE7FEE7FEE7FEE7FEE7FEE7E51800087C
:10012000ED000008D2B201E000F8012B491EFBD21D
:1001300070470022F6E710B513460A4604461946F2
:10014000FFF7F0FF204610BDF0B480EA0102D40FA3
:100150004200B2EB410F02D20246084611464A0065
:1001600042D0C30DDDB2C1F3C752AD1A202D35DA2E
:10017000C1F3160141F4000204B15242C5F1200658
:1001800002FA06F12A411044B3EBD05F23D0C4B188
:10019000012DA0EBC35009DCF0BC4FF0004202EA95
:1001A000C352DBB200F5000000F0B9B8400000F126
:1001B000807000EBC350A0F1807040EAD17049001C
:1001C00009E0490841EAC071A0EBC35000F5000006
:1001D000400800EBC350F0BC00F098B86142012227
:1001E00002EB4101001BF6E7F0BC704781F00041D3
:1001F000AAE780F00040A7E780EA010210B502F00C
:100200000043400022D04A001FD0010E01EB1261D2
:10021000C0F35600C2F3560240F4000042F400025C
:10022000A0FB022000047F39140400D0401C50EAD7
:10023000124001D44000491EC2B20C0604EBD0109B
:10024000401C4008802A02D003E0002010BD20F0AE
:100250000100002900DA0020184310BDC10F80EA18
:10026000E0700844CA079623002100F058B800F057
:10027000004220F00040C10DC0F3160040F4000021
:100280007F2901DA00207047962903DCC1F196012D
:10029000C84001E096398840002AF4D040427047B7
:1002A00000F0004230F000400AD0C10D01F560714D
:1002B000C0F3160042EA0151C208400711437047DB
:1002C000002001467047000030B5041E71F10004A3
:1002D00004DB4FF00044404264EB0101141E73F153
:1002E000000405DB1C464FF00043524263EB04035D
:1002F0008B4208BF824230BD002801DBC0F10040C4
:10030000002901DBC1F10041884270470029A8BFE4
:100310007047401C490008BF20F00100704710B42E
:10032000B0FA80FC00FA0CF050EA010404BF10BCE3
:10033000704749B1CCF1200421FA04F411FA0CF110
:1003400018BF012121430843A3EB0C01CB1D4FEA49
:1003500000614FEA102042BF002010BC704700EB44
:10036000C35010440029A4BF10BC7047401C490072
:1003700008BF20F0010010BC70470000064C074D7C
:1003800006E0E06840F0010394E807009847103465
:10039000AC42F6D3FFF7AEFEC81C0008E81C00080C
:1003A00070B5044600688168C943C9071CD18168DB
:1003B00021F00101816000F09BFC05460FE000BFC9
:1003C00000F096FC401B022809D9A06A40F01000FA
:1003D000A062E06A40F00100E062012070BD206888
:1003E0008068C043C007EBD0002070BD10B5014647
:1003F000406A826A12F0500F05D0006A026BBDE8B5
:10040000104008461047816A41F40071816201681A
:100410008968C1F3424107290CD1017B51B9816A36
:1004200021F480718162816AC90403D4816A41F038
:100430000101816200F0F6F810BD10B5406A816AD2
:1004400041F040018162C16A41F00401C16200F0E3
:10045000EBF810BD10B5406A00F0E5F810BD0000E3
:10046000F8B500260446009600688168C943C907AC
:1004700028D0816841F00101816013481349006868
:10048000B0FBF1F000E0401E00900028FBD100F02E
:100490002FFC054611E000BF00F02AFC401B02289B
:1004A0000BD9A06A40F01000A062E06A40F00100A1
:1004B000E06284F824600120F8BD20688068C043B1
:1004C000C007E9D10020F8BD2C00002040420F00F9
:1004D000FEE700000448054A0168116004494068CD
:1004E0000860044800F0FEB9600200200800002007
:1004F0000C0000209C02002030B590F840500124F0
:10050000AC40C56B6C60046863604368102B036883
:1005100003D099600068C26030BD9A600068C16015
:1005200030BD704770470000F8B50024009490F883
:1005300024202546012A12D0012280F824204A686E
:100540001F23072A0DD20668776B521E02EB820228
:1005500093409F430B6893401F43776319E0022049
:10056000F8BD06680D2A0AD2376BD21F02EB820251
:1005700093409F430B6893401F43376309E0F76A3A
:100580000D3A02EB820293409F430B6893401F4356
:10059000F7620A68072306680A2A0AD3F7680A3A44
:1005A00002EB420293409F438B6893401F43F760E6
:1005B00008E0376902EB420293409F438B68934007
:1005C0001F4337610A68102A01D0112A20D1124B2B
:1005D00002689A4217D193681B0219D4936843F4B6
:1005E000000393600968102912D10C490C4A09686C
:1005F000B1FBF2F101EB8101490000E0491E0091DD
:100600000029FBD104E0816A41F0200181620124CC
:1006100080F824502046F8BD002401402C00002022
:1006200040420F0070477047704700002DE9F041CD
:100630004FF0000704003D467ED0A06A002628B98E
:10064000E66284F82460204600F07EF82046FFF73A
:10065000A7FEA16A01F01001014304D0A06A40F096
:100660001000A06268E0A16A21F4885141F0020103
:10067000A1626268E169237B0A4347EA43010A43B6
:10068000A1684FF48077B94208D0012906D0002133
:1006900094F814C0BCF1010F02D00AE03946F7E724
:1006A000F3B1A36A43F02003A362E36A43F00103BA
:1006B000E3622368D3F804C02CF4694C4CEA010CC3
:1006C000C3F804C023689968DFF870C001EA0C0120
:1006D00011439960A168B9420BD0012909D00CE0FF
:1006E000DFF85CC0A3690CEB43330B4343F40061B8
:1006F000DFE7218A0D05A5F580152168CB6A23F473
:1007000070032B43CB62216889680E4B19409142DC
:1007100008D1E662A16A21F0020141F00101A16263
:10072000BDE8F081A06A20F0020040F01000A06255
:10073000E06A40F00100E0620120F1E7FDF7E1FF2F
:1007400000E0FFFFFE0E1FFF70B586B000250646D5
:10075000009501950295039500681A4988422ED1AB
:100760001949886940F400708861886900F4007054
:100770000490886940F0040088618869694600F047
:100780000400049007200090032001900F4800F01F
:10079000B9F9104C0E48C4E900058020C4E90250A4
:1007A00080002061800060612020C4E906052046A9
:1007B00000F042F908B1FFF7B5FE3462666206B098
:1007C00070BD0000002401400010024000080140FC
:1007D000080002409C0200202DE9F04789460446AB
:1007E0003B4900683B4F0E1D9046884201D0B842FD
:1007F00007D1306810F4702F03D001252846BDE8DA
:10080000F08794F8240001280CD0012084F82400FB
:100810002046FFF725FE05004FF0000004D084F8C5
:100820002400EBE70220EAE7A16A40F60162914367
:1008300041F48071A1622168B94218D1326812F482
:10084000702F14D0A16A41F48011A162316849056A
:1008500005D5A16A21F4005141F48051A162A16A39
:10086000C9040AD5E16A21F00601E16206E0A26A44
:1008700022F48012A2624968E9E7E06284F8240069
:10088000216A15488862216A1448C862216A14489E
:10089000086321686FF0020008602068816841F4F5
:1008A00080718160216843464A464C31206A00F0DD
:1008B000F1F820688168C1F342410729816803D0BB
:1008C00041F48011816099E741F4A001FAE700004A
:1008D0000024014000280140ED03000855040008F1
:1008E0003B0400082DE9F05FC16B0C6801680B68E0
:1008F000D0F840C0042202FA0CF2494DDFF824A1DE
:10090000494E4A4FDFF828B1DFF828E122422CD0C7
:100910005A072AD50A68920603D40A6822F004020C
:100920000A600168A94201D1042219E0514501D1B0
:10093000402215E0B14202D14FF4806210E0B9428A
:1009400002D14FF480420BE0594502D14FF480228E
:1009500006E0714502D14FF4800201E04FF0806261
:100960002F4908394A60C16A3BE04FF0020808FA93
:100970000CF818EA040F4FF000094FF0010235D0CF
:100980005FEA837832D50B689B0605D40B6823F0A9
:100990000A030B6080F821200168A94201D10222DC
:1009A00019E0514501D1202215E0B14202D14FF4A6
:1009B000007210E0B94202D14FF400520BE05945E9
:1009C00002D14FF4003206E0714502D14FF400121B
:1009D00001E04FF00072124908394A6080F8209017
:1009E000816A00291AD0BDE8F05F0847082505FA9A
:1009F0000CF5254212D01B0710D50B6823F00E030F
:100A00000B6090F84010C36B02FA01F159608263E9
:100A100080F8212080F82090016BE2E7BDE8F09F8C
:100A2000080002401C000240300002404400024026
:100A3000580002406C00024030B528B308C8134982
:100A400014221944B1FBF2F18900C163104981639A
:100A5000022141771A6843F6F0718A43D0E9001405
:100A60002143D0E902452C432143046921434469D1
:100A7000214384692143114319600021416301220C
:100A800042770177084630BD012030BDF8FFFDBF39
:100A90000000024070B5044690F8200000250128AF
:100AA0000CD0012084F8200094F821600020012E51
:100AB00006D084F820000225284670BD022070BDB3
:100AC000022684F82160A0632068066826F00106EB
:100AD00006602046FFF710FDE06A002820680168E4
:100AE00002D041F00E0106E021F00401016020680F
:100AF000016841F00A0101602068016841F00101CC
:100B00000160D9E72DE9F84FDFF8B891002409F129
:100B1000040A0AF1040B23460F270BF1040EC9E067
:100B20000125A5402A40AA427DD1674ED1F804C0D4
:100B3000ACEB0608B44532D014DCBCF1030F3AD05C
:100B400009DCBCF1000F2AD0BCF1010F1CD0BCF1B4
:100B5000020F31D11DE0BCF1110F17D0BCF1120F03
:100B60002AD119E0B8F5881F19D006DCB8F5803F06
:100B700015D0B8F5801F1FD111E0B8F5001F0ED0B9
:100B8000B8F5041F18D10AE0CB6815E0CB681B1D2F
:100B900012E0CB6808330FE0CB680C330CE08B68B5
:100BA0002BB1012B4FF0080303D0456104E004236F
:100BB00002E0056100E00023FF2A01D8064601E0BB
:100BC00000F104064FEA840501D9A5F12005D6F805
:100BD000008007FA05FC28EA0C0803FA05F548EA44
:100BE0000508C6F800804D68ED0062D5374DAE6946
:100BF00046F00106AE61AD6924F0030605F001057B
:100C00000095334D06EB050CDCF80850A607360FAF
:100C100007FA06F825EA0805DFF8B880404503D151
:100C20004FF0000817E044E0DFF8AC80404502D107
:100C30004FF001080FE0DFF8A480404502D14FF0EB
:100C4000020808E0DFF89880404502D14FF0030821
:100C500001E04FF0040808FA06F848EA0508CCF865
:100C600008804D68D9F80060ED034D4601D5164364
:100C700000E096432E604D68DAF80060AD035546FB
:100C800001D5164300E096432E604D68DBF8006006
:100C9000ED025D4601D5164300E096432E604D6897
:100CA000DEF80060AD02754601D5164300E09643BC
:100CB0002E60641C0D682A46E5407FF431AFBDE824
:100CC000F88F0000000401400000111000100240E5
:100CD0000000014000080140000C014000100140EC
:100CE000001401400AB1016170470904FBE70000EC
:100CF0000148806870470000200000200248816899
:100D0000027811448160704720000020074810B528
:100D1000016841F010010160032000F06DF800202F
:100D200000F006F800F024F8002010BD002002407A
:100D300070B50D4D04464FF47A712878B1FBF0F090
:100D40000A490968B1FBF0F000F03AFB48B9102CF1
:100D500007D200222146501E00F02EF800206C60C1
:100D600070BD012070BD0000200000202C0000207C
:100D7000094808B5816941F001018161816901F08B
:100D800001010091C16941F08051C161C06900F069
:100D90008050009008BD000000100240002809DBD0
:100DA00000F01F02012191404009800000F1E02085
:100DB000C0F8001170470000F0B40E4B1B680C46E1
:100DC000C3F30223C3F10705042D00D90425191D1F
:100DD000072901D2002300E0DB1E012606FA05F1F7
:100DE000491E214099409E40761E16403143F0BC7A
:100DF00000F07ABE0CED00E0064900F0070208683A
:100E00004FF6FF03184040EA0220034A10430860EF
:100E1000704700000CED00E00000FA052DE9F843F2
:100E200005460078354CC00754D0E0690026C00064
:100E300008D4E06940F08050E061E069012600F0EC
:100E4000805000902E480168C90512D40168804680
:100E500041F480710160FFF74BFF074605E000BFDA
:100E6000FFF746FFC01B642823D8D8F80000C00550
:100E7000F6D5206A10F4407021D0A98801F44071A1
:100E800081421CD0206A1F49012220F440700A6070
:100E900000220A602062C00711D0FFF729FF074631
:100EA00041F2883808E000BFFFF722FFC11B41452F
:100EB00002D90320BDE8F883206A8007F4D5206AB0
:100EC000696820F44070084320621EB1E06920F098
:100ED0008050E0612878800705D56068A96820F413
:100EE0004040084360602878C00605D56068E9681E
:100EF00020F48000084360600020DBE7001002401F
:100F000000700040400442422DE9F0470F460500C2
:100F100061D0434E306800F00700B84209D2306813
:100F200020F0070038433060306800F00700B84216
:100F300051D128683B4C810712D5400703D5606822
:100F400040F4E06060602878000703D5606840F4F2
:100F5000605060606068A96820F0F000084360603D
:100F60002878C00728D06868012810D02168022896
:100F700010D0890700292EDA616821F003010143AE
:100F80006160FFF7B5FE804641F288390DE02168C7
:100F90008903EFE78901EDE7FFF7AAFEA0EB08015F
:100FA000494502D90320BDE8F0876068696800F010
:100FB0000C00B0EB810FEFD1306800F00700B842B1
:100FC0000BD9306820F0070038433060306800F0FB
:100FD0000700B84201D00120E5E72878400705D591
:100FE0006068E96820F4E0600843606028780007E2
:100FF00006D56068296920F4605040EAC10060604D
:1010000000F018F86168084AC1F30311515CC84048
:101010000649086006480068FFF78AFE0020C2E71C
:101020000020024000100240B81C00082C000020E4
:101030002400002012A185B00FC98DE80F0014A074
:10104000144A006804905168134801F00C03042B03
:1010500010D0082B0ED1C1F38343C9031DF8030040
:101060000AD5516804AAC1F34041515C0A4A504371
:10107000B0FBF1F005B0704708494843FAE70000BB
:1010800002030405060708090A0B0C0D0E0F1010C9
:10109000010200000010024000127A0000093D0029
:1010A0002DE9F84F040070D02078C04DC00749D01A
:1010B0006868C0F38100012807D06868C0F3810028
:1010C000022809D16868C00306D52868800339D58D
:1010D00060680028E7D035E06068B0F5803F0BD04D
:1010E00010B1B0F5A02F11D0286820F4803028600E
:1010F000286820F4802002E0286840F480302860CE
:10110000606890B1FFF7F4FD06460AE0286840F4F5
:1011100080202860F0E700BFFFF7EAFD801B64280D
:1011200073D828688003F7D50CE0FFF7E1FD064689
:1011300005E000BFFFF7DCFD801B6428F0D82868BD
:101140008003F7D420789A4E80074FF001094FF0C2
:10115000000839D5686810F00C0F07D06868C0F334
:101160008100022809D16868C00306D42868800776
:1011700014D52069012808D110E02069B0B1C6F863
:101180000090FFF7B5FD074605E00AE1FFF7B0FD67
:10119000C01B0228C4D828688007F7D52868616971
:1011A00020F0F80040EAC10028600DE0C6F8008099
:1011B000FFF79EFD074604E0FFF79AFDC01B0228DB
:1011C00023D828688007F7D4207800072CD57948E1
:1011D000A169D9B1C0F80090FFF78AFD074604E085
:1011E000FFF786FDC01B02280FD8686A8007F7D575
:1011F00071484FF4FA510068B0FBF1F0009000BF65
:101200000098411E0091FAD20EE080E0C0F8008004
:10121000FFF76EFD074604E0FFF76AFDC01B0228DA
:1012200075D8686A8007F7D42078400760D5E869E8
:101230000027C00008D4E86940F08050E861E86900
:10124000012700F0805000905C480168C90513D464
:101250000168834641F480710160FFF749FD8246D1
:1012600006E000BFFFF744FDA0EB0A0064284ED85B
:10127000DBF80000C005F5D5E06801280AD008B108
:10128000052813D0286A20F001002862286A20F07F
:10129000040002E0286A40F001002862E06841F2A0
:1012A000883B98B1FFF724FD82460BE0286A40F0A6
:1012B00004002862EEE700BFFFF71AFDA0EB0A0169
:1012C00059455AD8286A8007F6D50CE0FFF710FD7B
:1012D000824605E0FFF70CFDA0EB0A0159454CD80A
:1012E000286A8007F6D41FB1E86920F08050E861D1
:1012F000E06988B36968C1F38101022944D00228FA
:10130000C6F8608004D0FFF7F3FC044638E034E010
:10131000FFF7EEFC074604E0FFF7EAFCC01B0228DB
:101320002BD828688001F7D4206AB0F5803F05D11A
:101330006868A16820F4003008436860D4E90801B7
:101340000843696821F4741108436860C6F8609026
:10135000FFF7CEFC044606E025E000BFFFF7C8FC1F
:10136000001B022809D828688001F7D51BE000BFC0
:10137000FFF7BEFC001B022802D90320BDE8F88F4E
:1013800028688001F4D40EE00128F7D06868226A4A
:1013900000F48031914204D1616A00F470108842F7
:1013A00001D00120EAE70020E8E700000010024039
:1013B00000004242800442422C00002000700040A5
:1013C00010B5401EB0F1807F01D3012010BD4FF059
:1013D000E02460610F21601700F086FB0020A0610F
:1013E00007202061002010BD7047704770B590F84D
:1013F0003C20012A19D0012400F83C4F02224270FF
:1014000050F83C3C5A689D6822F070060A684968AA
:10141000324325F0800529435A6050F83C2C9160F6
:10142000447000210170084670BD022070BD10B5E7
:10143000040003D094F83D0010B107E0012010BD76
:10144000002084F83C00204600F00CF8022084F8CC
:101450003D00211D206800F0DBFA012084F83D00EA
:10146000002010BD08B500680B49884212D10B4816
:10147000C16941F00201C161C069002200F00200AF
:10148000009011461D20FFF797FCBDE808401D2085
:10149000FFF784BC08BD00000004004000100240BB
:1014A0000168CA6842F00102CA600068816801F000
:1014B0000701062903D0016841F001010160002005
:1014C000704770B5044690F83C00012817D00125FC
:1014D00084F83C50022084F83D002068826822F0A5
:1014E000770222F47F4282600868502830D00DDCF9
:1014F00020284DD005DC98B310283BD148E00220CD
:1015000070BD302844D0402834D139E0602828D03C
:10151000702806D0B0F5805F2CD0B0F5005F29D1DF
:101520000AE0CB68D1E90121206800F0A7FA206821
:10153000816841F0770109E0CB68D1E90121206899
:1015400000F09CFA2068816841F48041816011E0DC
:10155000CA684968206800F0A3FA5021206807E0B3
:1015600016E0CA684968206800F0ABFA602120687C
:1015700000F08EFA84F83D50002084F83C0070BDE5
:10158000CA684968206800F08BFA40212068EFE7BC
:10159000226801461046EBE7704770B504460068C4
:1015A00001694FF00005C943890715D4C168C943D3
:1015B000890711D4E91E0161012020772068806924
:1015C0008007204602D0FFF7E7FF04E000F098F81C
:1015D000204600F096F8257720680169C94349073D
:1015E00017D4C168C943490713D46FF004010161DE
:1015F000022020772068806910F4407F204602D0C6
:10160000FFF7CAFF04E000F07BF8204600F079F80D
:10161000257720680169C943090716D4C168C94301
:10162000090712D46FF008010161042020772068B7
:10163000C0698007204602D0FFF7AEFF04E000F04B
:101640005FF8204600F05DF8257720680169C943FE
:10165000C90617D4C168C943C90613D46FF0100175
:101660000161082020772068C06910F4407F20467F
:1016700002D0FFF791FF04E000F042F8204600F0AE
:1016800040F8257720680169C943C90708D1C168B6
:10169000C943C90704D1891E0161204600F032F810
:1016A00020680169C943090609D4C168C94309060C
:1016B00005D46FF0800101612046FFF795FE206898
:1016C0000169C943490609D4C168C943490605D41B
:1016D0006FF040010161204600F015F820680169B3
:1016E000C94389060BD4C168C943890607D46FF082
:1016F000200101612046BDE87040FFF776BE70BD55
:101700007047704770477047FEE70000FEB5002441
:101710001B48009401941949029401608915816065
:10172000012505730475032606614FF460214460AA
:10173000C161FEF77BFF08B1FEF7F4FECDE900457D
:10174000022469460E480294FEF7EEFE08B1FEF749
:10175000E9FECDE9005469460948FEF7E5FE08B107
:10176000FEF7E0FECDE9004669460548FEF7DCFEDF
:10177000002801D0FEF7D6FEFEBD00000024014087
:101780006C020020094808B5416941F0010141613E
:101790004069002200F00100009001210B20FFF7BA
:1017A0000BFBBDE808400B20FFF7F8BA0010024021
:1017B00030B585B000241448009401940294039439
:1017C000816941F020018161816901F0200104916A
:1017D000816941F00401816180690C4D00F00400D1
:1017E0000490002238212846FFF77CFA3820009028
:1017F0000120CDE901040220039069462846FFF745
:1018000081F905B030BD0000001002400008014021
:1018100010B586B0002416480094019402940394F5
:1018200004941249059401604721C0E9011409217B
:10183000C0E903148461FFF7FAFD08B1FEF772FEF8
:101840004FF48050009069460948FFF73AFE08B10E
:10185000FEF768FE049404A905480594FFF7C6FD49
:10186000002801D0FEF75EFE06B010BD0004004067
:10187000E0020020FEE7704770477047FFF73EBA6E
:1018800030B593B028216846FEF753FC14210AA80E
:10189000FEF74FFC002401200F94109411940104D2
:1018A00012948DE8130004904FF4E010CDE9081075
:1018B000022507956846FFF7F3FB0F20CDE90A05DF
:1018C0006802CDE90C4002210AA80E94FFF71CFB28
:1018D0004FF4404011900F950FA8FFF79FFA13B0F7
:1018E00030BD00000D48016841F001010160416810
:1018F0000B4A1140416001680A4A114001600168C9
:1019000021F480210160416821F4FE0141604FF41F
:101910001F0181600449C003086070470010024045
:101920000000FFF8FFFFF6FE08ED00E02DE9F041B2
:101930002E4C64212E4F20682E4E401C90FBF1F25D
:1019400001FB1200206028BB6068C0F101006060EC
:1019500029480068FEF782FC054628480068FEF723
:101960007DFC01462A46002000F012F9FEF77FFCBC
:10197000386023480068FEF771FC0546214800687E
:10198000FEF76CFC01462A46012000F001F9FEF743
:101990006EFC3060386821681B4D884201DD0122F1
:1019A00000E0002208212846FFF79CF930682168F2
:1019B000884218DD60684FF0010268B12021284696
:1019C000FFF790F9002210212846FFF78BF9BDE8B8
:1019D000F0410E48FFF7E1BD10212846FFF782F9DC
:1019E00000222021F0E70022F6E700001800002086
:1019F000100000201400002008000020000000203B
:101A00000C0000200400002000080140E00200203B
:101A1000F0B50268164B174C174D4FF080479842AF
:101A200005D0B84203D0A04201D0A84203D122F091
:101A300070064A683243984205D0B84203D0A042AB
:101A400001D0A84203D122F44074CA6822434C69F1
:101A500022F08002224302608A68C2620A688262BF
:101A6000984201D10969016301214161F0BD000083
:101A7000002C0140000400400008004010B58468BC
:101A800042EA032224F47F440A432243826010BDC9
:101A9000826822F070020A4342F0070181607047B9
:101AA00010B5036A046A24F001040462846924F016
:101AB000F00444EA021423F00A020A438461026239
:101AC00010BD10B5036A23F0100303628369046A32
:101AD00023F4704343EA023224F0A00343EA0111E5
:101AE0008261016210BDFEE70907090E002804DBD0
:101AF00000F1E02080F80014704700F00F0000F1C2
:101B0000E02080F8141D704702E008C8121F08C1C9
:101B1000002AFAD170477047002001E001C1121F6E
:101B2000002AFBD1704700001CB5FFF7EFF8FFF764
:101B3000A7FEFFF73DFEFFF725FEFFF7E7FDFFF7E6
:101B400067FE00250D4C0E4ECDE900542B462A466B
:101B50003146284600F092F8CDE9005400231A4699
:101B60003146012000F08AF8032206490648FEF7B4
:101B700033FE0648FFF794FCFEE7000000004842F1
:101B8000CDCCCC3D600200206C020020E0020020A1
:101B90002DE9F0410B46044611461846FEF726FB98
:101BA000354DC4EBC40705EBC7040646606194F8E5
:101BB00034004FF0000801284BD03046A169FEF7F1
:101BC00015FB20623146E069FEF7BEFAE061E1688C
:101BD000FEF792FB01D2E068E061E068E16980F025
:101BE0000040FEF789FB03D2E06880F00040E0612E
:101BF00055F837106069FEF7FFFA606207466168C2
:101C0000E069FEF7F9FAA0620546A168206AFEF7CE
:101C1000F3FA0646E06229463846FEF795FA314661
:101C2000FEF792FA20632169FEF766FB01D2206974
:101C300020632069FEF734FB064681F00045206BE7
:101C4000FEF72EFB32462B46FEF73EFB07D3206BFA
:101C500009E0A66184F834800020BDE8F0812069A5
:101C600080F00040206310F1FF4F01D3C4F83080B2
:101C70006069A061206BF0E73000002070B50D4C6A
:101C8000DDE90456C0EBC00044F8301004EBC0009E
:101C900000218161C1610162C0E90461C1628162A8
:101CA000416201630121041D84E82C0080F8341096
:101CB00070BD0000300000200000000000000000A7
:101CC0000102030406070809E81C000800000020C0
:101CD00030000000081B0008181D0008300000201C
:101CE000F0060000181B00086C070000D007000079
:101CF00000000000000000000000000000000000E4
:101D000000000000000000000100000010000000C2
:081D1000000000000024F400B3
:04000005080000ED02
:00000001FF
